{
  "_format": "hh-sol-artifact-1",
  "contractName": "BaseDrumNFT",
  "sourceName": "contracts/BaseDrumNFT.sol",
  "abi": [
    {
      "inputs": [],
      "stateMutability": "nonpayable",
      "type": "constructor"
    },
    {
      "inputs": [
        {
          "internalType": "address",
          "name": "sender",
          "type": "address"
        },
        {
          "internalType": "uint256",
          "name": "tokenId",
          "type": "uint256"
        },
        {
          "internalType": "address",
          "name": "owner",
          "type": "address"
        }
      ],
      "name": "ERC721IncorrectOwner",
      "type": "error"
    },
    {
      "inputs": [
        {
          "internalType": "address",
          "name": "operator",
          "type": "address"
        },
        {
          "internalType": "uint256",
          "name": "tokenId",
          "type": "uint256"
        }
      ],
      "name": "ERC721InsufficientApproval",
      "type": "error"
    },
    {
      "inputs": [
        {
          "internalType": "address",
          "name": "approver",
          "type": "address"
        }
      ],
      "name": "ERC721InvalidApprover",
      "type": "error"
    },
    {
      "inputs": [
        {
          "internalType": "address",
          "name": "operator",
          "type": "address"
        }
      ],
      "name": "ERC721InvalidOperator",
      "type": "error"
    },
    {
      "inputs": [
        {
          "internalType": "address",
          "name": "owner",
          "type": "address"
        }
      ],
      "name": "ERC721InvalidOwner",
      "type": "error"
    },
    {
      "inputs": [
        {
          "internalType": "address",
          "name": "receiver",
          "type": "address"
        }
      ],
      "name": "ERC721InvalidReceiver",
      "type": "error"
    },
    {
      "inputs": [
        {
          "internalType": "address",
          "name": "sender",
          "type": "address"
        }
      ],
      "name": "ERC721InvalidSender",
      "type": "error"
    },
    {
      "inputs": [
        {
          "internalType": "uint256",
          "name": "tokenId",
          "type": "uint256"
        }
      ],
      "name": "ERC721NonexistentToken",
      "type": "error"
    },
    {
      "inputs": [
        {
          "internalType": "address",
          "name": "owner",
          "type": "address"
        }
      ],
      "name": "OwnableInvalidOwner",
      "type": "error"
    },
    {
      "inputs": [
        {
          "internalType": "address",
          "name": "account",
          "type": "address"
        }
      ],
      "name": "OwnableUnauthorizedAccount",
      "type": "error"
    },
    {
      "anonymous": false,
      "inputs": [
        {
          "indexed": true,
          "internalType": "address",
          "name": "owner",
          "type": "address"
        },
        {
          "indexed": true,
          "internalType": "address",
          "name": "approved",
          "type": "address"
        },
        {
          "indexed": true,
          "internalType": "uint256",
          "name": "tokenId",
          "type": "uint256"
        }
      ],
      "name": "Approval",
      "type": "event"
    },
    {
      "anonymous": false,
      "inputs": [
        {
          "indexed": true,
          "internalType": "address",
          "name": "owner",
          "type": "address"
        },
        {
          "indexed": true,
          "internalType": "address",
          "name": "operator",
          "type": "address"
        },
        {
          "indexed": false,
          "internalType": "bool",
          "name": "approved",
          "type": "bool"
        }
      ],
      "name": "ApprovalForAll",
      "type": "event"
    },
    {
      "anonymous": false,
      "inputs": [
        {
          "indexed": true,
          "internalType": "address",
          "name": "previousOwner",
          "type": "address"
        },
        {
          "indexed": true,
          "internalType": "address",
          "name": "newOwner",
          "type": "address"
        }
      ],
      "name": "OwnershipTransferred",
      "type": "event"
    },
    {
      "anonymous": false,
      "inputs": [
        {
          "indexed": true,
          "internalType": "uint256",
          "name": "tokenId",
          "type": "uint256"
        },
        {
          "indexed": true,
          "internalType": "address",
          "name": "creator",
          "type": "address"
        },
        {
          "indexed": false,
          "internalType": "string",
          "name": "title",
          "type": "string"
        },
        {
          "indexed": false,
          "internalType": "uint16",
          "name": "bpm",
          "type": "uint16"
        },
        {
          "indexed": false,
          "internalType": "uint8",
          "name": "bars",
          "type": "uint8"
        }
      ],
      "name": "SongMinted",
      "type": "event"
    },
    {
      "anonymous": false,
      "inputs": [
        {
          "indexed": true,
          "internalType": "address",
          "name": "from",
          "type": "address"
        },
        {
          "indexed": true,
          "internalType": "address",
          "name": "to",
          "type": "address"
        },
        {
          "indexed": true,
          "internalType": "uint256",
          "name": "tokenId",
          "type": "uint256"
        }
      ],
      "name": "Transfer",
      "type": "event"
    },
    {
      "inputs": [
        {
          "internalType": "address",
          "name": "to",
          "type": "address"
        },
        {
          "internalType": "uint256",
          "name": "tokenId",
          "type": "uint256"
        }
      ],
      "name": "approve",
      "outputs": [],
      "stateMutability": "nonpayable",
      "type": "function"
    },
    {
      "inputs": [
        {
          "internalType": "address",
          "name": "owner",
          "type": "address"
        }
      ],
      "name": "balanceOf",
      "outputs": [
        {
          "internalType": "uint256",
          "name": "",
          "type": "uint256"
        }
      ],
      "stateMutability": "view",
      "type": "function"
    },
    {
      "inputs": [
        {
          "internalType": "uint256",
          "name": "tokenId",
          "type": "uint256"
        }
      ],
      "name": "getAllTracks",
      "outputs": [
        {
          "components": [
            {
              "internalType": "uint16[]",
              "name": "pattern",
              "type": "uint16[]"
            },
            {
              "internalType": "string[]",
              "name": "notes",
              "type": "string[]"
            },
            {
              "internalType": "uint8",
              "name": "volume",
              "type": "uint8"
            },
            {
              "internalType": "bool",
              "name": "muted",
              "type": "bool"
            }
          ],
          "internalType": "struct BaseDrumNFT.Track[]",
          "name": "",
          "type": "tuple[]"
        }
      ],
      "stateMutability": "view",
      "type": "function"
    },
    {
      "inputs": [
        {
          "internalType": "uint256",
          "name": "tokenId",
          "type": "uint256"
        }
      ],
      "name": "getApproved",
      "outputs": [
        {
          "internalType": "address",
          "name": "",
          "type": "address"
        }
      ],
      "stateMutability": "view",
      "type": "function"
    },
    {
      "inputs": [
        {
          "internalType": "uint256",
          "name": "limit",
          "type": "uint256"
        }
      ],
      "name": "getRecentSongs",
      "outputs": [
        {
          "internalType": "uint256[]",
          "name": "",
          "type": "uint256[]"
        }
      ],
      "stateMutability": "view",
      "type": "function"
    },
    {
      "inputs": [
        {
          "internalType": "uint256",
          "name": "tokenId",
          "type": "uint256"
        }
      ],
      "name": "getShareableURL",
      "outputs": [
        {
          "internalType": "string",
          "name": "",
          "type": "string"
        }
      ],
      "stateMutability": "view",
      "type": "function"
    },
    {
      "inputs": [
        {
          "internalType": "uint256",
          "name": "tokenId",
          "type": "uint256"
        }
      ],
      "name": "getSongData",
      "outputs": [
        {
          "components": [
            {
              "internalType": "string",
              "name": "title",
              "type": "string"
            },
            {
              "internalType": "uint16",
              "name": "bpm",
              "type": "uint16"
            },
            {
              "internalType": "uint8",
              "name": "bars",
              "type": "uint8"
            },
            {
              "internalType": "uint8",
              "name": "steps",
              "type": "uint8"
            },
            {
              "internalType": "uint32",
              "name": "created",
              "type": "uint32"
            },
            {
              "internalType": "address",
              "name": "creator",
              "type": "address"
            },
            {
              "internalType": "uint32",
              "name": "creatorFid",
              "type": "uint32"
            }
          ],
          "internalType": "struct BaseDrumNFT.SongMetadata",
          "name": "metadata",
          "type": "tuple"
        },
        {
          "components": [
            {
              "internalType": "uint16",
              "name": "filterCutoff",
              "type": "uint16"
            },
            {
              "internalType": "uint8",
              "name": "filterType",
              "type": "uint8"
            },
            {
              "internalType": "uint16",
              "name": "reverbWet",
              "type": "uint16"
            },
            {
              "internalType": "uint8",
              "name": "reverbRoomSize",
              "type": "uint8"
            },
            {
              "internalType": "uint16",
              "name": "reverbDecay",
              "type": "uint16"
            }
          ],
          "internalType": "struct BaseDrumNFT.Effects",
          "name": "effects",
          "type": "tuple"
        },
        {
          "internalType": "string[]",
          "name": "trackNames",
          "type": "string[]"
        }
      ],
      "stateMutability": "view",
      "type": "function"
    },
    {
      "inputs": [
        {
          "internalType": "uint256",
          "name": "tokenId",
          "type": "uint256"
        }
      ],
      "name": "getSongEffects",
      "outputs": [
        {
          "components": [
            {
              "internalType": "uint16",
              "name": "filterCutoff",
              "type": "uint16"
            },
            {
              "internalType": "uint8",
              "name": "filterType",
              "type": "uint8"
            },
            {
              "internalType": "uint16",
              "name": "reverbWet",
              "type": "uint16"
            },
            {
              "internalType": "uint8",
              "name": "reverbRoomSize",
              "type": "uint8"
            },
            {
              "internalType": "uint16",
              "name": "reverbDecay",
              "type": "uint16"
            }
          ],
          "internalType": "struct BaseDrumNFT.Effects",
          "name": "",
          "type": "tuple"
        }
      ],
      "stateMutability": "view",
      "type": "function"
    },
    {
      "inputs": [
        {
          "internalType": "uint256",
          "name": "tokenId",
          "type": "uint256"
        }
      ],
      "name": "getSongMetadata",
      "outputs": [
        {
          "components": [
            {
              "internalType": "string",
              "name": "title",
              "type": "string"
            },
            {
              "internalType": "uint16",
              "name": "bpm",
              "type": "uint16"
            },
            {
              "internalType": "uint8",
              "name": "bars",
              "type": "uint8"
            },
            {
              "internalType": "uint8",
              "name": "steps",
              "type": "uint8"
            },
            {
              "internalType": "uint32",
              "name": "created",
              "type": "uint32"
            },
            {
              "internalType": "address",
              "name": "creator",
              "type": "address"
            },
            {
              "internalType": "uint32",
              "name": "creatorFid",
              "type": "uint32"
            }
          ],
          "internalType": "struct BaseDrumNFT.SongMetadata",
          "name": "",
          "type": "tuple"
        }
      ],
      "stateMutability": "view",
      "type": "function"
    },
    {
      "inputs": [
        {
          "internalType": "address",
          "name": "creator",
          "type": "address"
        }
      ],
      "name": "getSongsByCreator",
      "outputs": [
        {
          "internalType": "uint256[]",
          "name": "",
          "type": "uint256[]"
        }
      ],
      "stateMutability": "view",
      "type": "function"
    },
    {
      "inputs": [
        {
          "internalType": "uint256",
          "name": "tokenId",
          "type": "uint256"
        },
        {
          "internalType": "string",
          "name": "trackName",
          "type": "string"
        }
      ],
      "name": "getTrack",
      "outputs": [
        {
          "components": [
            {
              "internalType": "uint16[]",
              "name": "pattern",
              "type": "uint16[]"
            },
            {
              "internalType": "string[]",
              "name": "notes",
              "type": "string[]"
            },
            {
              "internalType": "uint8",
              "name": "volume",
              "type": "uint8"
            },
            {
              "internalType": "bool",
              "name": "muted",
              "type": "bool"
            }
          ],
          "internalType": "struct BaseDrumNFT.Track",
          "name": "",
          "type": "tuple"
        }
      ],
      "stateMutability": "view",
      "type": "function"
    },
    {
      "inputs": [
        {
          "internalType": "uint256",
          "name": "tokenId",
          "type": "uint256"
        }
      ],
      "name": "getTrackNames",
      "outputs": [
        {
          "internalType": "string[]",
          "name": "",
          "type": "string[]"
        }
      ],
      "stateMutability": "view",
      "type": "function"
    },
    {
      "inputs": [
        {
          "internalType": "address",
          "name": "owner",
          "type": "address"
        },
        {
          "internalType": "address",
          "name": "operator",
          "type": "address"
        }
      ],
      "name": "isApprovedForAll",
      "outputs": [
        {
          "internalType": "bool",
          "name": "",
          "type": "bool"
        }
      ],
      "stateMutability": "view",
      "type": "function"
    },
    {
      "inputs": [],
      "name": "mintPrice",
      "outputs": [
        {
          "internalType": "uint256",
          "name": "",
          "type": "uint256"
        }
      ],
      "stateMutability": "view",
      "type": "function"
    },
    {
      "inputs": [
        {
          "components": [
            {
              "internalType": "string",
              "name": "title",
              "type": "string"
            },
            {
              "internalType": "uint16",
              "name": "bpm",
              "type": "uint16"
            },
            {
              "internalType": "uint8",
              "name": "bars",
              "type": "uint8"
            },
            {
              "internalType": "uint8",
              "name": "steps",
              "type": "uint8"
            },
            {
              "internalType": "uint32",
              "name": "created",
              "type": "uint32"
            },
            {
              "internalType": "address",
              "name": "creator",
              "type": "address"
            },
            {
              "internalType": "uint32",
              "name": "creatorFid",
              "type": "uint32"
            }
          ],
          "internalType": "struct BaseDrumNFT.SongMetadata",
          "name": "metadata",
          "type": "tuple"
        },
        {
          "components": [
            {
              "internalType": "uint16",
              "name": "filterCutoff",
              "type": "uint16"
            },
            {
              "internalType": "uint8",
              "name": "filterType",
              "type": "uint8"
            },
            {
              "internalType": "uint16",
              "name": "reverbWet",
              "type": "uint16"
            },
            {
              "internalType": "uint8",
              "name": "reverbRoomSize",
              "type": "uint8"
            },
            {
              "internalType": "uint16",
              "name": "reverbDecay",
              "type": "uint16"
            }
          ],
          "internalType": "struct BaseDrumNFT.Effects",
          "name": "effects",
          "type": "tuple"
        },
        {
          "internalType": "string[]",
          "name": "trackNames",
          "type": "string[]"
        },
        {
          "components": [
            {
              "internalType": "uint16[]",
              "name": "pattern",
              "type": "uint16[]"
            },
            {
              "internalType": "string[]",
              "name": "notes",
              "type": "string[]"
            },
            {
              "internalType": "uint8",
              "name": "volume",
              "type": "uint8"
            },
            {
              "internalType": "bool",
              "name": "muted",
              "type": "bool"
            }
          ],
          "internalType": "struct BaseDrumNFT.Track[]",
          "name": "trackData",
          "type": "tuple[]"
        }
      ],
      "name": "mintSong",
      "outputs": [
        {
          "internalType": "uint256",
          "name": "",
          "type": "uint256"
        }
      ],
      "stateMutability": "payable",
      "type": "function"
    },
    {
      "inputs": [],
      "name": "name",
      "outputs": [
        {
          "internalType": "string",
          "name": "",
          "type": "string"
        }
      ],
      "stateMutability": "view",
      "type": "function"
    },
    {
      "inputs": [],
      "name": "owner",
      "outputs": [
        {
          "internalType": "address",
          "name": "",
          "type": "address"
        }
      ],
      "stateMutability": "view",
      "type": "function"
    },
    {
      "inputs": [
        {
          "internalType": "uint256",
          "name": "tokenId",
          "type": "uint256"
        }
      ],
      "name": "ownerOf",
      "outputs": [
        {
          "internalType": "address",
          "name": "",
          "type": "address"
        }
      ],
      "stateMutability": "view",
      "type": "function"
    },
    {
      "inputs": [],
      "name": "renounceOwnership",
      "outputs": [],
      "stateMutability": "nonpayable",
      "type": "function"
    },
    {
      "inputs": [
        {
          "internalType": "address",
          "name": "from",
          "type": "address"
        },
        {
          "internalType": "address",
          "name": "to",
          "type": "address"
        },
        {
          "internalType": "uint256",
          "name": "tokenId",
          "type": "uint256"
        }
      ],
      "name": "safeTransferFrom",
      "outputs": [],
      "stateMutability": "nonpayable",
      "type": "function"
    },
    {
      "inputs": [
        {
          "internalType": "address",
          "name": "from",
          "type": "address"
        },
        {
          "internalType": "address",
          "name": "to",
          "type": "address"
        },
        {
          "internalType": "uint256",
          "name": "tokenId",
          "type": "uint256"
        },
        {
          "internalType": "bytes",
          "name": "data",
          "type": "bytes"
        }
      ],
      "name": "safeTransferFrom",
      "outputs": [],
      "stateMutability": "nonpayable",
      "type": "function"
    },
    {
      "inputs": [
        {
          "internalType": "address",
          "name": "operator",
          "type": "address"
        },
        {
          "internalType": "bool",
          "name": "approved",
          "type": "bool"
        }
      ],
      "name": "setApprovalForAll",
      "outputs": [],
      "stateMutability": "nonpayable",
      "type": "function"
    },
    {
      "inputs": [
        {
          "internalType": "uint256",
          "name": "newPrice",
          "type": "uint256"
        }
      ],
      "name": "setMintPrice",
      "outputs": [],
      "stateMutability": "nonpayable",
      "type": "function"
    },
    {
      "inputs": [
        {
          "internalType": "uint256",
          "name": "",
          "type": "uint256"
        }
      ],
      "name": "songs",
      "outputs": [
        {
          "components": [
            {
              "internalType": "string",
              "name": "title",
              "type": "string"
            },
            {
              "internalType": "uint16",
              "name": "bpm",
              "type": "uint16"
            },
            {
              "internalType": "uint8",
              "name": "bars",
              "type": "uint8"
            },
            {
              "internalType": "uint8",
              "name": "steps",
              "type": "uint8"
            },
            {
              "internalType": "uint32",
              "name": "created",
              "type": "uint32"
            },
            {
              "internalType": "address",
              "name": "creator",
              "type": "address"
            },
            {
              "internalType": "uint32",
              "name": "creatorFid",
              "type": "uint32"
            }
          ],
          "internalType": "struct BaseDrumNFT.SongMetadata",
          "name": "metadata",
          "type": "tuple"
        },
        {
          "components": [
            {
              "internalType": "uint16",
              "name": "filterCutoff",
              "type": "uint16"
            },
            {
              "internalType": "uint8",
              "name": "filterType",
              "type": "uint8"
            },
            {
              "internalType": "uint16",
              "name": "reverbWet",
              "type": "uint16"
            },
            {
              "internalType": "uint8",
              "name": "reverbRoomSize",
              "type": "uint8"
            },
            {
              "internalType": "uint16",
              "name": "reverbDecay",
              "type": "uint16"
            }
          ],
          "internalType": "struct BaseDrumNFT.Effects",
          "name": "effects",
          "type": "tuple"
        }
      ],
      "stateMutability": "view",
      "type": "function"
    },
    {
      "inputs": [
        {
          "internalType": "bytes4",
          "name": "interfaceId",
          "type": "bytes4"
        }
      ],
      "name": "supportsInterface",
      "outputs": [
        {
          "internalType": "bool",
          "name": "",
          "type": "bool"
        }
      ],
      "stateMutability": "view",
      "type": "function"
    },
    {
      "inputs": [],
      "name": "symbol",
      "outputs": [
        {
          "internalType": "string",
          "name": "",
          "type": "string"
        }
      ],
      "stateMutability": "view",
      "type": "function"
    },
    {
      "inputs": [
        {
          "internalType": "uint256",
          "name": "tokenId",
          "type": "uint256"
        }
      ],
      "name": "tokenURI",
      "outputs": [
        {
          "internalType": "string",
          "name": "",
          "type": "string"
        }
      ],
      "stateMutability": "view",
      "type": "function"
    },
    {
      "inputs": [],
      "name": "totalSupply",
      "outputs": [
        {
          "internalType": "uint256",
          "name": "",
          "type": "uint256"
        }
      ],
      "stateMutability": "view",
      "type": "function"
    },
    {
      "inputs": [
        {
          "internalType": "address",
          "name": "from",
          "type": "address"
        },
        {
          "internalType": "address",
          "name": "to",
          "type": "address"
        },
        {
          "internalType": "uint256",
          "name": "tokenId",
          "type": "uint256"
        }
      ],
      "name": "transferFrom",
      "outputs": [],
      "stateMutability": "nonpayable",
      "type": "function"
    },
    {
      "inputs": [
        {
          "internalType": "address",
          "name": "newOwner",
          "type": "address"
        }
      ],
      "name": "transferOwnership",
      "outputs": [],
      "stateMutability": "nonpayable",
      "type": "function"
    },
    {
      "inputs": [],
      "name": "withdraw",
      "outputs": [],
      "stateMutability": "nonpayable",
      "type": "function"
    }
  ],
  "bytecode": "0x608034620003b0576001600160401b03906040818101838111838210176200039a578152601282526020927110985cd9511c9d5b48135d5cda58c813919560721b84840152815190828201828110828211176200039a578352600491828152634452554d60e01b8682015284519082821162000385576000968754926001978885811c951680156200037a575b8386101462000367578190601f9586811162000314575b508390868311600114620002b0578b92620002a4575b5050600019600383901b1c191690881b1788555b8151938411620002915786548781811c9116801562000286575b82821014620002735790818486959493116200021c575b5080928411600114620001b457508792620001a8575b5050600019600383901b1c191690841b1783555b331562000193575060068054336001600160a01b03198216811790925591519390916001600160a01b0316907f8be0079c531659141344cd1fd0a4f28419497f9722a3daafe3b4186f6b6457e09080a360085566038d7ea4c6800060095561383e9081620003b68239f35b836024925191631e4fbdf760e01b8352820152fd5b01519050388062000114565b9190879450601f198416858a52838a20938a905b828210620002025750508411620001e8575b505050811b01835562000128565b015160001960f88460031b161c19169055388080620001da565b8484015186558a97909501949384019390810190620001c8565b90919293508789528189208480870160051c82019284881062000269575b9187968b92969594930160051c01915b8281106200025a575050620000fe565b8b81558796508a91016200024a565b925081926200023a565b634e487b7160e01b895260228652602489fd5b90607f1690620000e7565b634e487b7160e01b885260418552602488fd5b015190503880620000b9565b8b8052848c208b94509190601f1984168d5b87828210620002fd5750508411620002e3575b505050811b018855620000cd565b015160001960f88460031b161c19169055388080620002d5565b8385015186558e97909501949384019301620002c2565b9091508a8052838b208680850160051c8201928686106200035d575b918c91869594930160051c01915b8281106200034e575050620000a3565b8d81558594508c91016200033e565b9250819262000330565b634e487b7160e01b8a526022875260248afd5b94607f16946200008c565b604184634e487b7160e01b6000525260246000fd5b634e487b7160e01b600052604160045260246000fd5b600080fdfe6080604052600436101561001257600080fd5b60003560e01c806301ffc9a71461020757806306fdde0314610202578063081812fc146101fd578063095ea7b3146101f857806315138a77146101f357806318160ddd146101ee57806323b872dd146101e957806327632983146101e4578063304cff30146101df5780633ccfd60b146101da57806342842e0e146101d55780634888ef95146101d05780636352211e146101cb5780636817c76c146101c657806370a08231146101c157806370eff9b6146101bc578063715018a6146101b7578063812b2f86146101b25780638da5cb5b146101ad57806395d89b41146101a85780639ba9ebc8146101a3578063a22cb4651461019e578063b88d4fde14610199578063c87b56dd14610194578063dfaeb3511461018f578063e5a65b691461018a578063e7b28a7c14610185578063e985e9c514610180578063f2fde38b1461017b578063f4a0a528146101765763fb722f8e1461017157600080fd5b612074565b612053565b611fc5565b611f68565b611eff565b611e4f565b611d3d565b61170f565b6116b0565b6115f5565b611102565b610fdf565b610fb6565b610ea6565b610d1d565b610cae565b610c55565b610c37565b610c07565b610b8f565b610b67565b610ade565b610a83565b6106b1565b61065f565b6105fa565b610589565b61044e565b6103d0565b6102ed565b610223565b6001600160e01b031981160361021e57565b600080fd5b3461021e57602036600319011261021e5760206004356102428161020c565b63ffffffff60e01b166380ac58cd60e01b8114908115610280575b811561026f575b506040519015158152f35b6301ffc9a760e01b14905038610264565b635b5e139f60e01b8114915061025d565b60005b8381106102a45750506000910152565b8181015183820152602001610294565b906020916102cd81518092818552858086019101610291565b601f01601f1916010190565b9060206102ea9281815201906102b4565b90565b3461021e576000806003193601126103cd576040519080805461030f816107d0565b808552916001918083169081156103a35750600114610349575b6103458561033981870382610891565b604051918291826102d9565b0390f35b80809450527f290decd9548b62a8d60345a988386fc84ba6bc95484008f6362f93160ef3e5635b82841061038b57505050810160200161033982610345610329565b80546020858701810191909152909301928101610370565b8695506103459693506020925061033994915060ff191682840152151560051b8201019293610329565b80fd5b3461021e57602036600319011261021e576004356103ed81612441565b506000526004602052602060018060a01b0360406000205416604051908152f35b600435906001600160a01b038216820361021e57565b602435906001600160a01b038216820361021e57565b35906001600160a01b038216820361021e57565b3461021e57604036600319011261021e5761046761040e565b6024359061047482612441565b3315158061053a575b8061050c575b6104f4576104f2926104d39181906001600160a01b0385811691167f8c5be1e5ebec7d5bd14f71427d1e84f3dd0314c0f7b2291e5b200ac8c7c3b925600080a46000526004602052604060002090565b80546001600160a01b0319166001600160a01b03909216919091179055565b005b60405163a9fbf51f60e01b8152336004820152602490fd5b506001600160a01b038116600090815260056020908152604080832033845290915290205460ff1615610483565b506001600160a01b03811633141561047d565b6080908161ffff9182815116855260ff602082015116602086015282604082015116604086015260ff6060820151166060860152015116910152565b3461021e57602036600319011261021e576004356105a56130f0565b506105d16105cc82600052600760205263ffffffff60016040600020015460201c16151590565b6130ae565b600052600760205260a06105eb60026040600020016109cf565b6105f8604051809261054d565bf35b3461021e57600036600319011261021e57600854600019810190811161062557602090604051908152f35b612653565b606090600319011261021e576001600160a01b0390600435828116810361021e5791602435908116810361021e579060443590565b3461021e576104f26106703661062a565b91612153565b6020908160408183019282815285518094520193019160005b82811061069d575050505090565b83518552938101939281019260010161068f565b3461021e57602036600319011261021e576106ca61040e565b600854600019810191908211610625576106e382613475565b91600091600190815b8381111561073c5785856106ff81613475565b9160005b82811061071857604051806103458682610676565b806107266107379284612aa0565b516107318287612aa0565b52612669565b610703565b61075f81600052600760205263ffffffff60016040600020015460201c16151590565b80610793575b610778575b61077390612669565b6106ec565b9361078b8186610731610773948a612aa0565b94905061076a565b506107bd836107ac836000526007602052604060002090565b015460401c6001600160a01b031690565b6001600160a01b03838116911614610765565b90600182811c92168015610800575b60208310146107ea57565b634e487b7160e01b600052602260045260246000fd5b91607f16916107df565b634e487b7160e01b600052604160045260246000fd5b60e081019081106001600160401b0382111761083b57604052565b61080a565b60a081019081106001600160401b0382111761083b57604052565b608081019081106001600160401b0382111761083b57604052565b602081019081106001600160401b0382111761083b57604052565b90601f801991011681019081106001600160401b0382111761083b57604052565b90604051918260008254926108c6846107d0565b90818452600194858116908160001461093557506001146108f2575b50506108f092500383610891565b565b9093915060005260209081600020936000915b81831061091d5750506108f0935082010138806108e2565b85548884018501529485019487945091830191610905565b9150506108f094506020925060ff191682840152151560051b82010138806108e2565b604051906108f082610820565b9060405161097281610820565b60c060018294610981816108b2565b8452015461ffff8116602084015260ff8160101c16604084015260ff8160181c16606084015263ffffffff8160201c16608084015260018060a01b038160401c1660a084015260e01c910152565b906040516109dc81610840565b608081935461ffff90818116845260ff8160101c166020850152818160181c16604085015260ff8160281c16606085015260301c16910152565b9060c0610a2c835160e0845260e08401906102b4565b9261ffff602082015116602084015260ff604082015116604084015260ff60608201511660608401528163ffffffff9182608082015116608086015260018060a01b0360a08201511660a086015201511691015290565b3461021e57602036600319011261021e576004356000526007602052610ad36040600020610abc6002610ab583610965565b92016109cf565b61034560405193849360c0855260c0850190610a16565b91602084019061054d565b3461021e576000806003193601126103cd57610af8612127565b478015610b2b57600654610b28918391829182918291906001600160a01b03165af1610b226124ce565b50613670565b80f35b60405162461bcd60e51b81526020600482015260146024820152734e6f2066756e647320746f20776974686472617760601b6044820152606490fd5b3461021e576104f2610b783661062a565b9060405192610b8684610876565b60008452612318565b3461021e57602036600319011261021e576008546000198082016004358382116106255781811115610c01575080915b610bc883613475565b9360005b848110610be157604051806103458882610676565b82818303019084821161062557610bfc916107318289612aa0565b610bcc565b91610bbf565b3461021e57602036600319011261021e576020610c25600435612441565b6040516001600160a01b039091168152f35b3461021e57600036600319011261021e576020600954604051908152f35b3461021e57602036600319011261021e576001600160a01b03610c7661040e565b168015610c955760005260036020526020604060002054604051908152f35b6040516322718ad960e21b815260006004820152602490fd5b3461021e57602036600319011261021e57600435610cca613075565b50610cf16105cc82600052600760205263ffffffff60016040600020015460201c16151590565b6000526007602052610345610d096040600020610965565b604051918291602083526020830190610a16565b3461021e576000806003193601126103cd57610d37612127565b600680546001600160a01b0319811690915581906001600160a01b03167f8be0079c531659141344cd1fd0a4f28419497f9722a3daafe3b4186f6b6457e08280a380f35b90815180825260208092019182818360051b82019501936000915b848310610da65750505050505090565b9091929394958480610dc083856001950387528a516102b4565b9801930193019194939290610d96565b9060808101825160808352805180925260a083019160208092019060005b818110610e2c575050506060610e156102ea94938383948801519086830390870152610d7b565b60408087015160ff16908501529401511515910152565b825161ffff1685529383019391830191600101610dee565b602080820190808352835180925260408301928160408460051b8301019501936000915b848310610e785750505050505090565b9091929394958480610e96600193603f198682030187528a51610dd0565b9801930193019194939290610e68565b3461021e5760208060031936011261021e57600435610ee16105cc82600052600760205263ffffffff60016040600020015460201c16151590565b8060005260078252610ef9600460406000200161311b565b805192610f0584611b5e565b93610f136040519586610891565b808552610f22601f1991611b5e565b0160005b818110610fa05750505060005b8151811015610f9257610f8d90610f72610f6d6003610f5c876000526007602052604060002090565b01610f678487612aa0565b51612ae1565b613195565b610f7c8287612aa0565b52610f878186612aa0565b50612669565b610f33565b604051806103458682610e44565b8290610faa613170565b82828901015201610f26565b3461021e57600036600319011261021e576006546040516001600160a01b039091168152602090f35b3461021e576000806003193601126103cd5760405190806001805491611004836107d0565b808652928281169081156103a3575060011461102a576103458561033981870382610891565b92508083527fb10e2d527612073b26eecdfd717e6a320cf44b4afac2b0732d9fcbe2b7fa0cf65b82841061106c57505050810160200161033982610345610329565b80546020858701810191909152909301928101611051565b6001600160401b03811161083b57601f01601f191660200190565b9291926110ab82611084565b916110b96040519384610891565b82948184528183011161021e578281602093846000960137010152565b9080601f8301121561021e578160206102ea9335910161109f565b9060206102ea928181520190610dd0565b3461021e5760408060031936011261021e57600435906024356001600160401b03811161021e576111379036906004016110d6565b91611140613170565b506111676105cc82600052600760205263ffffffff60016040600020015460201c16151590565b60005261118e60208093600782526003846000200182855194838680955193849201610291565b820190815203019020908051916111a48361085b565b8151815480825260208201906111bf84600052602060002090565b6000905b82600f8301106114785793611271818a6002968a61129c9a9783976103459f60ff9c5493838310611462575b838310611448575b838310611430575b838310611416575b8383106113fe575b508282106113dd575b8282106113bc575b82821061139b575b82821061137a575b828210611359575b828210611338575b828210611317575b8282106112f6575b8282106112d5575b8282106112b4575b50106112a6575b5090500382610891565b875261127f6001830161311b565b90870152015460ff828216168486015260081c1615156060840152565b51918291826110f1565b60f01c815201849038611267565b846112cc6001939661ffff8760e01c1661ffff169052565b01930184611260565b846112ed6001939661ffff8760d01c1661ffff169052565b01930184611258565b8461130e6001939661ffff8760c01c1661ffff169052565b01930184611250565b8461132f6001939661ffff8760b01c1661ffff169052565b01930184611248565b846113506001939661ffff8760a01c1661ffff169052565b01930184611240565b846113716001939661ffff8760901c1661ffff169052565b01930184611238565b846113926001939661ffff8760801c1661ffff169052565b01930184611230565b846113b36001939661ffff8760701c1661ffff169052565b01930184611228565b846113d46001939661ffff8760601c1661ffff169052565b01930184611220565b846113f56001939661ffff8760501c1661ffff169052565b01930184611218565b84901c61ffff1685529093600191019301848e61120f565b603085901c61ffff16865291946001908201950191611207565b84821c61ffff168652919460019082019501916111ff565b601085901c61ffff168652919460019082019501916111f7565b61ffff85168652919460019082019501916111ef565b926001610200826115ce8a6115c36010968f61159c8c54946114c461ffff936114a686868a1661ffff169052565b61ffff888e1c861616868201525b8488848801921c1661ffff169052565b6115746060916114de838701868a60301c1661ffff169052565b6114f4608091868a848a01921c1661ffff169052565b61154c60a09161150e838901888c60501c1661ffff169052565b61152460c095888c888c01921c1661ffff169052565b868a61010060e09a6115408c8201858560701c1661ffff169052565b01921c1661ffff169052565b6115626101208b01868a60901c1661ffff169052565b84886101408c01921c1661ffff169052565b61158a6101608901848860b01c1661ffff169052565b82866101808a01921c1661ffff169052565b6115b26101a08701828660d01c1661ffff169052565b836101c08701921c1661ffff169052565b60f01c6101e0830152565b0194019101906111c3565b60243590811515820361021e57565b3590811515820361021e57565b3461021e57604036600319011261021e5761160e61040e565b6116166115d9565b6001600160a01b038216918215611697573360009081526005602090815260408083206001600160a01b0390941683529290522060ff1981541660ff831515161790557f17307eab39ab6107e8899845ad3d59bd9653f200f220920489ca2b5937696c3160405180611692339482919091602081019215159052565b0390a3005b604051630b61174360e31b815260048101849052602490fd5b3461021e57608036600319011261021e576116c961040e565b6116d1610424565b606435916001600160401b03831161021e573660238401121561021e576117056104f293369060248160040135910161109f565b9160443591612318565b3461021e57602036600319011261021e576004356117496105cc82600052600760205263ffffffff60016040600020015460201c16151590565b611765611760826000526007602052604060002090565b610965565b90815161178961178461177d602086015161ffff1690565b61ffff1690565b6134cf565b926040926117c66117846117bd60c06117b16117846117ab8a89015160ff1690565b60ff1690565b95015163ffffffff1690565b63ffffffff1690565b8451637db917c760e11b8082526004820184905260009490939091908582602481305afa948515611a7c5786928396611a81575b5088519081526004810191909152908180602481015b0381305afa948515611a7c578095611a57575b50508551693d913730b6b2911d101160b11b6020820152968795602a870161184a91612aca565b7f222c20226465736372697074696f6e223a2022426173654472756d204d75736981527f63204e4654202d2047656e6572617465642066726f6d20626c6f636b636861696020820152671b8819185d18488b60c21b60408201526048016e2261747472696275746573223a205b60881b8152600f017f7b2274726169745f74797065223a202242504d222c202276616c7565223a20008152601f016118ee91612aca565b611f4b60f21b81526002017f7b2274726169745f74797065223a202242617273222c202276616c7565223a20815260200161192891612aca565b611f4b60f21b81526002017f7b2274726169745f74797065223a202243726561746f7220464944222c202276815266030b63ab2911d160cd1b602082015260270161197291612aca565b607d60f81b815260010161174b60f21b8152600201711130b734b6b0ba34b7b72fbab936111d101160711b81526012016119ab91612aca565b61088b60f21b8152600201701132bc3a32b93730b62fbab936111d101160791b81526011016119d991612aca565b61227d60f01b81526002010391601f199283810182526119f99082610891565b611a029061372d565b81517f646174613a6170706c69636174696f6e2f6a736f6e3b6261736536342c000000602082015292908390603d8201611a3b91612aca565b039081018352611a4b9083610891565b516103458192826102d9565b611a749295503d8091833e611a6c8183610891565b810190613612565b923880611823565b6124c2565b6118109392919650611a9c903d8085833e611a6c8183610891565b959091926117fa565b60a4359061ffff8216820361021e57565b359061ffff8216820361021e57565b6084359060ff8216820361021e57565b359060ff8216820361021e57565b359063ffffffff8216820361021e57565b60a090602319011261021e5760405190611b0d82610840565b8161ffff602435818116810361021e57825260443560ff8116810361021e576020830152606435908116810361021e576040820152611b4a611ac5565b60608201526080611b59611aa5565b910152565b6001600160401b03811161083b5760051b60200190565b9080601f8301121561021e57813590611b8d82611b5e565b92611b9b6040519485610891565b828452602092838086019160051b8301019280841161021e57848301915b848310611bc95750505050505090565b82356001600160401b03811161021e578691611bea848480948901016110d6565b815201920191611bb9565b9080601f8301121561021e57813590611c0d82611b5e565b926040611c1c81519586610891565b8385526020938486019185600592831b8501019480861161021e57868501935b868510611c4e57505050505050505090565b6001600160401b0390853582811161021e5787019060809182601f19828703011261021e57855190611c7f8261085b565b8b81013585811161021e57810186603f8201121561021e57808d8092013589611ca782611b5e565b93611cb482519586610891565b8285528401918c1b8301019189831161021e578f908b01915b838310611d25575050505082528681013594851161021e57611d168c9594611cfa88888098860101611b75565b86850152606092611d0c848201611ad5565b8a860152016115e8565b90820152815201940193611c3c565b8190611d3084611ab6565b8152019101908f90611ccd565b6003196101003682011261021e57600435906001600160401b039081831161021e5760e090833603011261021e57611d73610958565b91806004013582811161021e57611df391611d9660c492600436918401016110d6565b8552611da460248201611ab6565b6020860152611db560448201611ad5565b6040860152611dc660648201611ad5565b6060860152611dd760848201611ae3565b6080860152611de860a4820161043a565b60a086015201611ae3565b60c0830152611e0136611af4565b9160c43582811161021e57611e1a903690600401611b75565b60e43592831161021e5761034593611e39611e3f943690600401611bf5565b92612cf8565b6040519081529081906020820190565b3461021e57602036600319011261021e57600435611e6b613075565b50611e746130f0565b50611e9b6105cc82600052600760205263ffffffff60016040600020015460201c16151590565b6000526007602052611ee76040600020610345611eb782610965565b91611ed06004611ec9600284016109cf565b920161311b565b611ef260405195869560e0875260e0870190610a16565b92602086019061054d565b83820360c0850152610d7b565b3461021e57602036600319011261021e57600435611f396105cc82600052600760205263ffffffff60016040600020015460201c16151590565b6000526007602052610345611f54600460406000200161311b565b604051918291602083526020830190610d7b565b3461021e57604036600319011261021e57602060ff611fb9611f8861040e565b611f90610424565b6001600160a01b0391821660009081526005865260408082209290931681526020919091522090565b54166040519015158152f35b3461021e57602036600319011261021e57611fde61040e565b611fe6612127565b6001600160a01b0390811690811561203a57600654826bffffffffffffffffffffffff60a01b821617600655167f8be0079c531659141344cd1fd0a4f28419497f9722a3daafe3b4186f6b6457e0600080a3005b604051631e4fbdf760e01b815260006004820152602490fd5b3461021e57602036600319011261021e5761206c612127565b600435600955005b3461021e57602036600319011261021e576103456120b46004356117846105cc82600052600760205263ffffffff60016040600020015460201c16151590565b612113604360405180937f68747470733a2f2f626173652e6f72672f6170702f626173656472756d3f706c60208301526261793d60e81b60408301526121038151809260208686019101610291565b8101036023810184520182610891565b6040519182916020835260208301906102b4565b6006546001600160a01b0316330361213b57565b60405163118cdaa760e01b8152336004820152602490fd5b90916001600160a01b038084169283156122ec5782600094818652600260205260409684888820541696879133151580612248575b50906121e87fddf252ad1be2c89b69c2b068fc378daa952ba7f163c4a11628f55a4df523b3ef928461221a575b6001600160a01b0381166000908152600360205260409020600181540190556104d3876000526002602052604060002090565b80a416928383036121f95750505050565b6064945051926364283d7b60e01b8452600484015260248301526044820152fd5b6122238761241d565b6001600160a01b038516600090815260036020526040902080546000190190556121b5565b919394509150806122a3575b1561226457859291879138612188565b878688612284579051637e27328960e01b81526004810191909152602490fd5b905163177e802f60e01b81523360048201526024810191909152604490fd5b5033871480156122c9575b80612254575085825260046020523385898420541614612254565b50868252600560209081528883203360009081529152604090205460ff166122ae565b604051633250574960e11b815260006004820152602490fd5b6040519061231282610876565b60008252565b91929092612327818585612153565b833b612334575b50505050565b612359916020916040519384928392630a85bd0160e11b978885523360048601612491565b038160006001600160a01b0388165af1600091816123ed575b506123b157826123806124ce565b80519190826123aa57604051633250574960e11b81526001600160a01b0383166004820152602490fd5b6020915001fd5b6001600160e01b031916036123ca57503880808061232e565b604051633250574960e11b81526001600160a01b03919091166004820152602490fd5b61240f91925060203d8111612416575b6124078183610891565b81019061247c565b9038612372565b503d6123fd565b612431906000526004602052604060002090565b80546001600160a01b0319169055565b6000818152600260205260409020546001600160a01b0316908115612464575090565b60249060405190637e27328960e01b82526004820152fd5b9081602091031261021e57516102ea8161020c565b6001600160a01b0391821681529116602082015260408101919091526080606082018190526102ea929101906102b4565b6040513d6000823e3d90fd5b3d156124f9573d906124df82611084565b916124ed6040519384610891565b82523d6000602084013e565b606090565b1561250557565b60405162461bcd60e51b8152602060048201526014602482015273125b9cdd59999a58da595b9d081c185e5b595b9d60621b6044820152606490fd5b1561254857565b60405162461bcd60e51b815260206004820152601c60248201527f547261636b20617272617973206c656e677468206d69736d61746368000000006044820152606490fd5b1561259457565b60405162461bcd60e51b815260206004820152601c60248201527f4d7573742068617665206174206c65617374206f6e6520747261636b000000006044820152606490fd5b156125e057565b60405162461bcd60e51b815260206004820152600b60248201526a496e76616c69642042504d60a81b6044820152606490fd5b1561261a57565b60405162461bcd60e51b8152602060048201526011602482015270125b9d985b1a590818985c8818dbdd5b9d607a1b6044820152606490fd5b634e487b7160e01b600052601160045260246000fd5b60001981146106255760010190565b818110612683575050565b60008155600101612678565b9190601f811161269e57505050565b6108f0926000526020600020906020601f840160051c830193106126ca575b601f0160051c0190612678565b90915081906126bd565b91909182516001600160401b03811161083b576126fb816126f584546107d0565b8461268f565b602080601f831160011461273757508192939460009261272c575b50508160011b916000199060031b1c1916179055565b015190503880612716565b90601f1983169561274d85600052602060002090565b926000905b88821061278a57505083600195969710612771575b505050811b019055565b015160001960f88460031b161c19169055388080612767565b80600185968294968601518155019501930190612752565b91909182519081516001600160401b03811161083b576127c6816126f584546107d0565b6020928390601f83116001146129295761281560016128fe958560c0966108f09a9b966128279660009261291e575b5050600019600383901b1c191690831b1781555b019583015161ffff1690565b855461ffff191661ffff909116178555565b612850612838604083015160ff1690565b855462ff0000191660109190911b62ff000016178555565b61287b612861606083015160ff1690565b855463ff000000191660189190911b63ff00000016178555565b6128b161288f608083015163ffffffff1690565b855467ffffffff00000000191660209190911b67ffffffff0000000016178555565b60a08101516128f3906001600160a01b0316855468010000000000000000600160e01b03191660409190911b68010000000000000000600160e01b0316178555565b015163ffffffff1690565b81546001600160e01b031660e09190911b6001600160e01b031916179055565b0151905038806127f5565b90601f1983169161293f85600052602060002090565b9260005b81811061299157506128fe956001866108f09a9b96612827966128159660c09a859710612978575b505050811b018155612809565b015160001960f88460031b161c1916905538808061296b565b929387600181928786015181550195019301612943565b908160021b918083046004149015171561062557565b815191600160401b831161083b578154838355808410612a1c575b506129ee602080920192600052602060002090565b6000925b848410612a00575050505050565b60018382612a10839451866126d4565b019201930192906129f2565b6000838152846020822092830192015b828110612a3a5750506129d9565b80612a47600192546107d0565b80612a54575b5001612a2c565b601f908181118414612a6c5750508281555b38612a4d565b83612a8e92612a8085600052602060002090565b920160051c82019101612678565b60008181526020812081835555612a66565b8051821015612ab45760209160051b010190565b634e487b7160e01b600052603260045260246000fd5b90612add60209282815194859201610291565b0190565b602090612afb928260405194838680955193849201610291565b82019081520301902090565b90600160401b811161083b578154818355808210612b2457505050565b6108f092600052600f602060002091601e82850160041c84019460011b1680612b54575b500160041c0190612678565b600019908186019182549160200360031b1c16905538612b48565b91908051928351936001600160401b03851161083b57612b8f8583612b07565b602080910194612ba483600052602060002090565b8160041c9160005b838110612c7f5750600f198116900380612c22575b5050506108f09394506002612c0c92612be2606093860151600183016129be565b0192612c05612bf5604083015160ff1690565b855460ff191660ff909116178555565b0151151590565b815461ff00191690151560081b61ff0016179055565b96600097885b818110612c475750505001949094559192839290600282612be2612bc1565b90919885612c75600192612c5d8d5161ffff1690565b9085851b60031b9161ffff809116831b921b19161790565b9a01929101612c28565b6000805b60108110612c98575083820155600101612bac565b999086612cc58c600193612cae865161ffff1690565b91851b60031b9161ffff809116831b921b19161790565b92019a01612c83565b91939260ff9061ffff612ceb6040946060875260608701906102b4565b9616602085015216910152565b93929092612d0a6009543410156124fe565b612d178351835114612541565b612d238351151561258d565b60208501612d4a61ffff612d39835161ffff1690565b168015159081612f93575b506125d9565b60408601612d6f60ff612d5e835160ff1690565b168015159081612f87575b50612613565b612eb260085496612d87612d8289612669565b600855565b612e268951612e0d612d9b875161ffff1690565b612dee8d612de4612dad8a5160ff1690565b612dda612dc360c06117b1606087015160ff1690565b95612dcc610958565b98895261ffff166020890152565b60ff166040870152565b60ff166060850152565b4263ffffffff1660808401523360a084015263ffffffff1660c0830152565b612e218a6000526007602052604060002090565b6127a2565b6002612e3c896000526007602052604060002090565b82519101805460208401516040850151606086015160809096015160109290921b62ff00001661ffff90951667ffffffffffffffff19909316929092179390931760189190911b64ffff000000161760289390931b65ff0000000000169290921760309190911b67ffff00000000000016179055565b612ed2856004612ecc896000526007602052604060002090565b016129be565b60005b8551811015612f235780612f19612eef612f1e9388612aa0565b51612f146003612f098c6000526007602052604060002090565b01610f67858c612aa0565b612b6f565b612669565b612ed5565b50909350849250612f6f612f677f61e1a0046e035e11c05cd589371fc83a3509b205bd19fd025e609b3229ad2e5c9397612f5d8633612fa0565b51955161ffff1690565b915160ff1690565b90612f81604051928392339784612cce565b0390a390565b60209150111538612d69565b61012c9150111538612d44565b906001600160a01b038083169081156122ec57826000526002602052604060002054166130038115159485613047575b6001600160a01b0381166000908152600360205260409020600181540190556104d3856000526002602052604060002090565b7fddf252ad1be2c89b69c2b068fc378daa952ba7f163c4a11628f55a4df523b3ef600080a461302e57565b6040516339e3563760e11b815260006004820152602490fd5b6130508561241d565b6001600160a01b03831660009081526003602052604090208054600019019055612fd0565b6040519061308282610820565b816060815260c06000918260208201528260408201528260608201528260808201528260a08201520152565b156130b557565b60405162461bcd60e51b815260206004820152601360248201527214dbdb99c8191bd95cc81b9bdd08195e1a5cdd606a1b6044820152606490fd5b604051906130fd82610840565b60006080838281528260208201528260408201528260608201520152565b90815461312781611b5e565b926131356040519485610891565b818452600090815260208082208186015b848410613154575050505050565b6001838192613162856108b2565b815201920193019290613146565b6040519061317d8261085b565b60006060838181528160208201528260408201520152565b9060409081516131a48161085b565b8092805194856131ba8254809860209181520190565b966131ca83600052602060002090565b906000915b81600f84011061342857938361327c606097956108f09a9b9c6132a09660029660ff9a5491818110613413575b8181106133fa575b8181106133e2575b8181106133c9575b8a8282106133b1575b50818110613398575b818110613381575b818110613368575b81811061334f575b818110613336575b81811061331d575b818110613304575b8181106132eb575b8181106132d2575b8181106132b9575b106132ab575b500382610891565b875261328a6001820161311b565b60208801520154918383169086019060ff169052565b60081c161515910152565b60f01c815260200138613274565b60e083901c61ffff16845292600190602001930161326e565b60d083901c61ffff168452926001906020019301613266565b60c083901c61ffff16845292600190602001930161325e565b60b083901c61ffff168452926001906020019301613256565b60a083901c61ffff16845292600190602001930161324e565b609083901c61ffff168452926001906020019301613246565b608083901c61ffff16845292600190602001930161323e565b607083901c61ffff168452926001906020019301613236565b828d1c61ffff16845292600190602001930161322e565b605083901c61ffff168452926001906020019301613226565b83901c61ffff1684529260019060200193018a61321d565b603083901c61ffff168452926001906020019301613214565b602083811c61ffff168552909360019101930161320c565b601083901c61ffff168452926001906020019301613204565b61ffff831684529260019060200193016131fc565b98600161020060109261346a8d546115c3838c61159c61ffff916134518484881661ffff169052565b6114c460206114b4818701868f8b901c1661ffff169052565b019a019201916131cf565b9061347f82611b5e565b61348c6040519182610891565b828152809261349d601f1991611b5e565b0190602036910137565b906134b182611084565b6134be6040519182610891565b828152809261349d601f1991611084565b806000917a184f03e93ff9f4daa797ed6e38ed64bf6a1f01000000000000000080821015613604575b506d04ee2d6d415b85acef8100000000808310156135f5575b50662386f26fc10000808310156135e6575b506305f5e100808310156135d7575b50612710808310156135c8575b5060648210156135b8575b600a809210156135ae575b6001908160216135668287016134a7565b95860101905b613578575b5050505090565b600019019083906f181899199a1a9b1b9c1cb0b131b232b360811b8282061a8353049182156135a95791908261356c565b613571565b9160010191613555565b919060646002910491019161354a565b6004919392049101913861353f565b60089193920491019138613532565b60109193920491019138613523565b60209193920491019138613511565b6040935081049150386134f8565b60208183031261021e578051906001600160401b03821161021e570181601f8201121561021e57805161364481611084565b926136526040519485610891565b8184526020828401011161021e576102ea9160208085019101610291565b1561367757565b60405162461bcd60e51b815260206004820152601160248201527015da5d1a191c985dd85b0819985a5b1959607a1b6044820152606490fd5b60405190606082018281106001600160401b0382111761083b57604052604082527f6768696a6b6c6d6e6f707172737475767778797a303132333435363738392b2f6040837f4142434445464748494a4b4c4d4e4f505152535455565758595a61626364656660208201520152565b906002820180921161062557565b8051156137ff5761373c6136b0565b61376061375b61375661374f855161371f565b6003900490565b6129a8565b6134a7565b91602081019160208251830101906020850193600191828101915b8481106137bd5750505050506003905106806001146137aa5760021461379f575090565b603d90600019015390565b50603d9081600119820153600019015390565b60039693949680910193845191600287603f85831c16860101518353876030600495861b1686010151888401538551908301538451908201530195939261377b565b506102ea61230556fea2646970667358221220683080d2562b7a58b01b5cf56ba56b14cfce3280615b2282ac4090d6b03f875164736f6c63430008140033",
  "linkReferences": {},
  "deployedLinkReferences": {}
}